:020000040800F2
:100000000050002045020008E9010008EF01000847
:10001000F5010008FB0100080102000800000000D3
:1000200000000000000000000000000007020008BF
:1000300013020008000000001F0200082B02000845
:100040008D0200088D0200088D0200088D02000854
:100050008D0200088D0200088D0200088D02000844
:100060008D0200088D0200088D0200088D02000834
:100070008D0200088D0200088D0200088D02000824
:100080008D0200088D0200088D0200088D02000814
:100090008D0200088D0200088D0200088D02000804
:1000A0008D0200088D0200088D0200088D020008F4
:1000B0008D0200088D0200088D0200088D020008E4
:1000C0008D0200088D0200088D0200088D020008D4
:1000D0008D0200088D0200088D0200088D020008C4
:1000E0008D0200088D0200088D020008000000004B
:1000F0000000000000000000000000000000000000
:0C01000000000000000000005FF808F1A3
:10010C0010B5054C237833B9044B13B10448AFF345
:10011C0000800123237010BD0400002000000000AB
:10012C00FC02000808B5034B1BB103490348AFF3AD
:10013C00008008BD0000000008000020FC02000840
:10014C0080B400AF054B41F63F725A60034B072257
:10015C001A6000BFBD4680BC704700BF10E000E0D5
:10016C0080B500AFFFF7ECFF00BF80BD80B483B05B
:10017C0000AF7860064A7B68136000BF044B1B68B5
:10018C00002BFBD100BF00BF0C37BD4680BC7047B5
:10019C002000002080B500AF0E4B10229A610E4B50
:1001AC004FF033325A60FFF7DBFF0B4BDB680A4A28
:1001BC0023F40053D3604FF47A70FFF7D7FF064B4C
:1001CC00DB68054A43F40053D3604FF47A70FFF7B1
:1001DC00CDFFEAE7001002400010014080B400AFF0
:1001EC00FEE780B400AFFEE780B400AFFEE780B45A
:1001FC0000AFFEE780B400AFFEE780B400AF00BFF5
:10020C00BD4680BC704780B400AF00BFBD4680BC0B
:10021C00704780B400AF00BFBD4680BC704780B54E
:10022C0000AF00F02FF800BF80BD80B400AF00BF5E
:10023C00BD4680BC70470000FFF7F7FF0B480C4928
:10024C000C4A002302E0D458C4500433C4188C4226
:10025C00F9D3094A094C002301E013600432A2428D
:10026C00FBD300F021F8FFF795FF7047000000204A
:10027C00040000201C0300080400002028000020BB
:10028C00FEE7000080B400AF054B1B781A46054B07
:10029C001B681344034A136000BFBD4680BC704703
:1002AC00000000202400002070B500260C4D0D4CE1
:1002BC00641BA410A64209D100F01AF800260A4DBE
:1002CC000A4C641BA410A64205D170BD55F8043B22
:1002DC0098470136EEE755F8043B98470136F2E7AC
:1002EC001403000814030008140300081803000882
:1002FC00F8B500BFF8BC08BC9E467047F8B500BF07
:08030C00F8BC08BC9E467047D6
:0403140031010008AB
:040318000D010008CB
:04031C0001000000DC
:0400000508000245A8
:00000001FF
