:020000040800F2
:100000000050002039020008DD010008E30100086B
:10001000E9010008EF010008F501000800000000F8
:10002000000000000000000000000000FB010008CC
:100030000702000800000000130200081F02000869
:100040008102000881020008810200088102000884
:100050008102000881020008810200088102000874
:1000600081020008810200084D0100088102000899
:100070008102000881020008810200088102000854
:100080008102000881020008810200088102000844
:100090008102000881020008810200088102000834
:1000A0008102000881020008810200088102000824
:1000B0008102000881020008810200088102000814
:1000C0008102000881020008810200088102000804
:1000D00081020008810200088102000881020008F4
:1000E000810200088102000881020008000000006F
:1000F0000000000000000000000000000000000000
:0C01000000000000000000005FF808F1A3
:10010C0010B5054C237833B9044B13B10448AFF345
:10011C0000800123237010BD0400002000000000AB
:10012C00F002000808B5034B1BB103490348AFF3B9
:10013C00008008BD0000000008000020F00200084C
:10014C0080B400AF094B5B6903F01003002B08D09F
:10015C00064B10225A61064BDB68054A83F00203FA
:10016C00D36000BFBD4680BC704700BF0004014097
:10017C000008014080B400AF0F4B0D229A610F4B69
:10018C004FF033321A600E4B4FF044321A600B4B67
:10019C000222DA600B4B0122DA600B4B10221A6040
:1001AC00094B10225A60084B10229A60074B4FF4EF
:1001BC0080621A60FEE700BF001002400008014098
:1001CC00000C0140000001400004014000E100E08F
:1001DC0080B400AFFEE780B400AFFEE780B400AFA0
:1001EC00FEE780B400AFFEE780B400AFFEE780B45A
:1001FC0000AF00BFBD4680BC704780B400AF00BFED
:10020C00BD4680BC704780B400AF00BFBD4680BC0B
:10021C00704780B500AF00F02FF800BF80BD80B4F0
:10022C0000AF00BFBD4680BC70470000FFF7F7FF72
:10023C000B480C490C4A002302E0D458C450043338
:10024C00C4188C42F9D3094A094C002301E013600D
:10025C000432A242FBD300F021F8FFF78BFF70476A
:10026C0000000020040000201003000804000020FF
:10027C0024000020FEE7000080B400AF054B1B7883
:10028C001A46054B1B681344034A136000BFBD4656
:10029C0080BC7047000000202000002070B50026B4
:1002AC000C4D0D4C641BA410A64209D100F01AF899
:1002BC0000260A4D0A4C641BA410A64205D170BD41
:1002CC0055F8043B98470136EEE755F8043B984740
:1002DC000136F2E7080300080803000808030008C9
:1002EC000C030008F8B500BFF8BC08BC9E4670476C
:0C02FC00F8B500BFF8BC08BC9E46704777
:0403080031010008B7
:04030C000D010008D7
:0403100001000000E8
:0400000508000239B4
:00000001FF
