:020000040800F2
:10000000005000207D040008210400082704000897
:100010002D04000833040008390400080000000023
:100020000000000000000000000000003F04000885
:100030004B04000800000000570400086304000897
:10004000C5040008C5040008C5040008C50400086C
:10005000C5040008C5040008C5040008C50400085C
:10006000C5040008C5040008C5040008C50400084C
:10007000C5040008C5040008C5040008C50400083C
:10008000C5040008C5040008C5040008C50400082C
:10009000C5040008C5040008C5040008C50400081C
:1000A000C5040008C5040008C5040008C50400080C
:1000B000C5040008C5040008C5040008C5040008FC
:1000C000C5040008C5040008C5040008C5040008EC
:1000D000C5040008C5040008C5040008C5040008DC
:1000E000C5040008C5040008C5040008000000009D
:1000F0000000000000000000000000000000000000
:0C01000000000000000000005FF808F1A3
:1001100010B5054C237833B9044B13B10448AFF341
:1001200000800123237010BD0400002000000000A7
:100130003405000808B5034B1BB103490348AFF36E
:10014000008008BD00000000080000203405000801
:100150004A0011D212F5001211D20DD56FF4787346
:10016000B3EB62520ED44FEAC12343F0004343EA9B
:10017000505323FA02F070474FF00000704750EAE6
:10018000013002D14FF0FF3070474FF00000704750
:1001900080B582B000AF786039603B680A4A93420C
:1001A00008D0094A93420ADC084A934206D0084A1A
:1001B000934204E0786800F00FF800E000BF7B682D
:1001C00018460837BD4680BD003801400044004055
:1001D000004800400000000080B584B000AF7860A7
:1001E000134B44F205029A61124BB0225A60114B34
:1001F0004FF480625A600CA3D3E90023C7E90223BD
:10020000D7E90201FFF7A4FF02467B689A607B688A
:100210000C22DA607B68DB6843F400527B68DA60AA
:1002200000BF1037BD4680BD0000000000088A40B6
:10023000001002400008014080B483B000AF786035
:1002400039603B6818460C37BD4680BC704780B4A7
:1002500083B000AF78600B46FB70FA787B685A6019
:1002600000BF7B681B6803F08003002B0CBF0123D9
:100270000023DBB2002BF4D100BF00BF0C37BD461A
:1002800080BC704780B483B000AF786000BF7B68EB
:100290001B6803F02003002B0CBF01230023DBB2FB
:1002A000002BF4D17B685B68DBB218460C37BD4687
:1002B00080BC704780B584B000AF7860396000239F
:1002C000FB600AE0FB683A6813441B7819467868BB
:1002D000FFF7BDFFFB680133FB60FB683A6813441E
:1002E0001B78002BEED100BF00BF1037BD4680BD8C
:1002F00080B400AF074B10229A61074B4FF44012B5
:100300005A60054B4FF040725A6000BFBD4680BC3A
:10031000704700BF001002400010014090B583B04C
:1003200000AFFFF7E5FF38491C20FFF785FF0446C3
:1003300035492046FFF72CFF7C607868FFF7A2FF65
:100340000346572B0CBF01230023DBB2002B08D040
:100350002E497868FFF7AEFF2D4B4FF40052DA605C
:10036000EBE77868FFF78EFF0346772B0CBF01237E
:100370000023DBB2002B0AD026497868FFF79AFFEA
:10038000234BDB68224A23F40053D360D5E7786817
:10039000FFF778FF0346552B0CBF01230023DBB288
:1003A000002B0AD01C497868FFF784FF184BDB68E4
:1003B000174A23F48043D360BFE77868FFF762FFF2
:1003C0000346752B0CBF01230023DBB2002B0AD0A0
:1003D00011497868FFF76EFF0D4BDB680C4A23F478
:1003E0008043D360A9E70D497868FFF763FF084BA6
:1003F000DB68074A23F48043D360054BDB68044A7B
:1004000023F40053D36098E7003801404C050008FE
:100410000010014060050008740500088805000808
:1004200080B400AFFEE780B400AFFEE780B400AF59
:10043000FEE780B400AFFEE780B400AFFEE780B413
:1004400000AF00BFBD4680BC704780B400AF00BFA6
:10045000BD4680BC704780B400AF00BFBD4680BCC5
:10046000704780B500AF00F02FF800BF80BD80B4AA
:1004700000AF00BFBD4680BC70470000FFF7F7FF2C
:100480000B480C490C4A002302E0D458C4500433F2
:10049000C4188C42F9D3094A094C002301E01360C7
:1004A0000432A242FBD300F021F8FFF737FF704778
:1004B0000000002004000020A40500080400002023
:1004C00024000020FEE7000080B400AF054B1B783D
:1004D0001A46054B1B681344034A136000BFBD4610
:1004E00080BC7047000000202000002070B500266E
:1004F0000C4D0D4C641BA410A64209D100F01AF853
:1005000000260A4D0A4C641BA410A64205D170BDFA
:1005100055F8043B98470136EEE755F8043B9847F9
:100520000136F2E79C0500089C0500089C050008C0
:10053000A0050008F8B500BFF8BC08BC9E4670478F
:0C054000F8B500BFF8BC08BC9E46704730
:10054C0046726F6E74204C4544206973204F4E0DDB
:10055C000A00000046726F6E74204C45442069738B
:10056C00204F46460D0A00004261636B204C454407
:10057C00206973204F46460D0A000000416C6C2028
:10058C004C45447320617265204F46460D0A0000AD
:04059C00350100081D
:0405A000110100083D
:0405A4000100000052
:040000050800047D6E
:00000001FF
