:020000040800F2
:100000000050002009020008AD010008B3010008FB
:10001000B9010008BF010008C50100080000000088
:10002000000000000000000000000000CB010008FC
:10003000D701000800000000E3010008EF010008FC
:100040005102000851020008510200085102000844
:100050005102000851020008510200085102000834
:100060005102000851020008510200085102000824
:100070005102000851020008510200085102000814
:100080005102000851020008510200085102000804
:1000900051020008510200085102000851020008F4
:1000A00051020008510200085102000851020008E4
:1000B00051020008510200085102000851020008D4
:1000C00051020008510200085102000851020008C4
:1000D00051020008510200085102000851020008B4
:1000E00051020008510200085102000800000000FF
:1000F0000000000000000000000000000000000000
:0C01000000000000000000005FF808F1A3
:10010C0010B5054C237833B9044B13B10448AFF345
:10011C0000800123237010BD0400002000000000AB
:10012C00C002000808B5034B1BB103490348AFF3E9
:10013C00008008BD0000000008000020C00200087C
:10014C0080B483B000AF134B10229A61124B4FF462
:10015C0040125A60104B4FF40052DA6000237B605F
:10016C0002E07B6801337B607B680C4A9342F8DDCC
:10017C00094BDB68084A23F40053D36000233B602F
:10018C0002E03B6801333B603B68044A9342F8DD74
:10019C00E0E700BF00100240001001409F86010004
:1001AC0080B400AFFEE780B400AFFEE780B400AFD0
:1001BC00FEE780B400AFFEE780B400AFFEE780B48A
:1001CC0000AF00BFBD4680BC704780B400AF00BF1D
:1001DC00BD4680BC704780B400AF00BFBD4680BC3C
:1001EC00704780B500AF00F02FF800BF80BD80B421
:1001FC0000AF00BFBD4680BC70470000FFF7F7FFA3
:10020C000B480C490C4A002302E0D458C450043368
:10021C00C4188C42F9D3094A094C002301E013603D
:10022C000432A242FBD300F021F8FFF789FF70479C
:10023C000000002004000020E00200080400002060
:10024C0024000020FEE7000080B400AF054B1B78B3
:10025C001A46054B1B681344034A136000BFBD4686
:10026C0080BC7047000000202000002070B50026E4
:10027C000C4D0D4C641BA410A64209D100F01AF8C9
:10028C0000260A4D0A4C641BA410A64205D170BD71
:10029C0055F8043B98470136EEE755F8043B984770
:1002AC000136F2E7D8020008D8020008D80200088C
:1002BC00DC020008F8B500BFF8BC08BC9E467047CD
:0C02CC00F8B500BFF8BC08BC9E467047A7
:0402D80031010008E8
:0402DC000D01000808
:0402E0000100000019
:0400000508000209E4
:00000001FF
