:020000040800F2
:100000000050002065020008090200080F020008E5
:10001000150200081B020008210200080000000071
:10002000000000000000000000000000270200089F
:1000300033020008000000003F0200084B020008E5
:10004000AD020008AD020008AD020008AD020008D4
:10005000AD020008AD020008AD020008AD020008C4
:10006000AD020008AD020008AD020008AD020008B4
:10007000AD020008AD020008AD020008AD020008A4
:10008000AD020008AD020008AD020008AD02000894
:10009000AD020008AD020008AD020008AD02000884
:1000A000AD020008AD020008AD020008AD02000874
:1000B000AD020008AD020008AD020008AD02000864
:1000C000AD020008AD020008AD020008AD02000854
:1000D000AD020008AD020008AD020008AD02000844
:1000E000AD020008AD020008AD02000800000000EB
:1000F0000000000000000000000000000000000000
:0C01000000000000000000005FF808F1A3
:10010C0010B5054C237833B9044B13B10448AFF345
:10011C0000800123237010BD0400002000000000AB
:10012C001C03000808B5034B1BB103490348AFF38C
:10013C00008008BD00000000080000201C0300081F
:10014C0080B485B000AF284B1C229A61274B4FF42A
:10015C0040125A60264B4FF440721A60254B9B6834
:10016C0003F01003002B27D1204B4FF40052DA6020
:10017C001F4B0422DA600023FB6002E0FB680133B2
:10018C00FB60FB681C4A9342F8DD184BDB68174A8E
:10019C0023F40053D360164BDB68154A23F0040399
:1001AC00D3600023BB6002E0BB680133BB60BB685B
:1001BC00114A9342F8DDD1E70C4BDB680B4A23F470
:1001CC000053D3600A4BDB68094A23F00403D36065
:1001DC0000237B6002E07B6801337B607B68064A0E
:1001EC009342F8DDBAE700BF001002400010014056
:1001FC0000080140000C01409F86010080B400AF54
:10020C00FEE780B400AFFEE780B400AFFEE780B439
:10021C0000AFFEE780B400AFFEE780B400AF00BFD4
:10022C00BD4680BC704780B400AF00BFBD4680BCEB
:10023C00704780B400AF00BFBD4680BC704780B52E
:10024C0000AF00F02FF800BF80BD80B400AF00BF3E
:10025C00BD4680BC70470000FFF7F7FF0B480C4908
:10026C000C4A002302E0D458C4500433C4188C4206
:10027C00F9D3094A094C002301E013600432A2426D
:10028C00FBD300F021F8FFF75BFF70470000002064
:10029C00040000203C03000804000020240000207F
:1002AC00FEE7000080B400AF054B1B781A46054BE7
:1002BC001B681344034A136000BFBD4680BC7047E3
:1002CC00000000202000002070B500260C4D0D4CC5
:1002DC00641BA410A64209D100F01AF800260A4D9E
:1002EC000A4C641BA410A64205D170BD55F8043B02
:1002FC0098470136EEE755F8043B98470136F2E78C
:10030C0034030008340300083403000838030008E1
:10031C00F8B500BFF8BC08BC9E467047F8B500BFE6
:08032C00F8BC08BC9E467047B6
:04033400310100088B
:040338000D010008AB
:04033C0001000000BC
:040000050800026588
:00000001FF
