:020000040800F2
:100000000050002005020008A9010008AF01000807
:10001000B5010008BB010008C10100080000000094
:10002000000000000000000000000000C701000800
:10003000D301000800000000DF010008EB01000808
:100040004D0200084D0200084D0200084D02000854
:100050004D0200084D0200084D0200084D02000844
:100060004D0200084D0200084D0200084D02000834
:100070004D0200084D0200084D0200084D02000824
:100080004D0200084D0200084D0200084D02000814
:100090004D0200084D0200084D0200084D02000804
:1000A0004D0200084D0200084D0200084D020008F4
:1000B0004D0200084D0200084D0200084D020008E4
:1000C0004D0200084D0200084D0200084D020008D4
:1000D0004D0200084D0200084D0200084D020008C4
:1000E0004D0200084D0200084D020008000000000B
:1000F0000000000000000000000000000000000000
:0C01000000000000000000005FF808F1A3
:10010C0010B5054C237833B9044B13B10448AFF345
:10011C0000800123237010BD0400002000000000AB
:10012C00BC02000808B5034B1BB103490348AFF3ED
:10013C00008008BD0000000008000020BC02000880
:10014C0080B483B000AF124B04229A61114B4FF470
:10015C0040721A600F4B0422DA6000237B6002E0CD
:10016C007B6801337B607B680B4A9342F8DD094B5B
:10017C00DB68084A23F00403D36000233B6002E0F1
:10018C003B6801333B603B68034A9342F8DDE1E78F
:10019C0000100240000801409F86010080B400AFAF
:1001AC00FEE780B400AFFEE780B400AFFEE780B49A
:1001BC0000AFFEE780B400AFFEE780B400AF00BF35
:1001CC00BD4680BC704780B400AF00BFBD4680BC4C
:1001DC00704780B400AF00BFBD4680BC704780B58F
:1001EC0000AF00F02FF800BF80BD80B400AF00BF9F
:1001FC00BD4680BC70470000FFF7F7FF0B480C4969
:10020C000C4A002302E0D458C4500433C4188C4266
:10021C00F9D3094A094C002301E013600432A242CD
:10022C00FBD300F021F8FFF78BFF70470000002094
:10023C0004000020DC020008040000202400002040
:10024C00FEE7000080B400AF054B1B781A46054B47
:10025C001B681344034A136000BFBD4680BC704743
:10026C00000000202000002070B500260C4D0D4C25
:10027C00641BA410A64209D100F01AF800260A4DFE
:10028C000A4C641BA410A64205D170BD55F8043B62
:10029C0098470136EEE755F8043B98470136F2E7EC
:1002AC00D4020008D4020008D4020008D8020008C6
:1002BC00F8B500BFF8BC08BC9E467047F8B500BF47
:0802CC00F8BC08BC9E46704717
:0402D40031010008EC
:0402D8000D0100080C
:0402DC00010000001D
:0400000508000205E8
:00000001FF
