:020000040800F2
:1000000000500020F1030008950300089B0300083E
:10001000A1030008A7030008AD03000800000000CA
:10002000000000000000000000000000B303000812
:10003000BF03000800000000CB030008D70300083E
:10004000390400083904000839040008390400089C
:10005000390400083904000839040008390400088C
:10006000390400083904000839040008390400087C
:10007000390400083904000839040008390400086C
:10008000390400083904000839040008390400085C
:10009000390400083904000839040008390400084C
:1000A000390400083904000839040008390400083C
:1000B000390400083904000839040008390400082C
:1000C000390400083904000839040008390400081C
:1000D000390400083904000839040008390400080C
:1000E0003904000839040008390400080000000041
:1000F0000000000000000000000000000000000000
:0C01000000000000000000005FF808F1A3
:10010C0010B5054C237833B9044B13B10448AFF345
:10011C0000800123237010BD0400002000000000AB
:10012C00A804000808B5034B1BB103490348AFF3FF
:10013C00008008BD0000000008000020A804000892
:10014C0080B485B000AFF860B9601346FB71FB68F2
:10015C00BA681A60FB68FA791A71FB79072B08D810
:10016C00FB681B791946FB681B6804228A401A60DD
:10017C0007E0FB681B791946FB681B6804228A4060
:10018C005A60FB6818461437BD4680BC704780B473
:10019C0083B000AF78607B681B689B68DBB203F0B0
:1001AC001003DBB218460C37BD4680BC704700000C
:1001BC0080B586B000AF07F1100304220F49184632
:1001CC00FFF7BEFF3B460E49184600F01BF807F13F
:1001DC0010031846FFF7DBFF0346002B0CBF01236F
:1001EC000023DBB2002B04D03B46184600F033F85A
:1001FC00EDE73B46184600F061F8E8E7000C0140DB
:10020C00C004000890B482B000AF786039607A689E
:10021C003B6814460FCB84E80F007B681B7B1946A8
:10022C007B681B6803228A401A607B685B7B1946DB
:10023C007B685B6803228A401A607B689B7B19464B
:10024C007B689B6803228A401A607B6818460837D3
:10025C00BD4690BC704780B582B000AF78607B68BB
:10026C001B68DA687B681B7B194601238B40194697
:10027C007B681B680A43DA607B685B68DA687B68BA
:10028C005B7B194601238B40DB4319467B685B681B
:10029C000A40DA607B689B68DA687B689B7B19464E
:1002AC0001238B4019467B689B680A43DA607868A7
:1002BC0000F037F800BF0837BD4680BD80B582B06E
:1002CC0000AF78607B681B68DA687B681B7B19461B
:1002DC0001238B40DB4319467B681B680A40DA60BC
:1002EC007B685B68DA687B685B7B194601238B4013
:1002FC0019467B685B680A43DA607B689B68DA683E
:10030C007B689B7B194601238B4019467B689B6855
:10031C000A43DA60786800F004F800BF0837BD467D
:10032C0080BD80B483B000AF78607B681B68DA68EE
:10033C007B681B7B194601238B40DB4319467B688A
:10034C001B680A40DA607B685B68DA687B685B7BF9
:10035C00194601238B40DB4319467B685B680A40D6
:10036C00DA607B689B68DA687B689B7B19460123A3
:10037C008B40DB4319467B689B680A40DA6000BF00
:10038C000C37BD4680BC704780B400AFFEE780B42C
:10039C0000AFFEE780B400AFFEE780B400AFFEE72D
:1003AC0080B400AFFEE780B400AF00BFBD4680BC98
:1003BC00704780B400AF00BFBD4680BC704780B4AE
:1003CC0000AF00BFBD4680BC704780B500AF00F0E9
:1003DC002FF800BF80BD80B400AF00BFBD4680BC0D
:1003EC0070470000FFF7F7FF0B480C490C4A00233D
:1003FC0002E0D458C4500433C4188C42F9D3094ACF
:10040C00094C002301E013600432A242FBD300F03C
:10041C0021F8FFF7CDFE70470000002004000020FB
:10042C00D80400080400002024000020FEE700008F
:10043C0080B400AF054B1B781A46054B1B68134460
:10044C00034A136000BFBD4680BC7047000000200B
:10045C002000002070B500260C4D0D4C641BA41020
:10046C00A64209D100F01AF800260A4D0A4C641B6A
:10047C00A410A64205D170BD55F8043B984701362F
:10048C00EEE755F8043B98470136F2E7D004000834
:10049C00D0040008D0040008D4040008F8B500BF4C
:1004AC00F8BC08BC9E467047F8B500BFF8BC08BC49
:0404BC009E467047A1
:1004C00000080140000C0140000801400501060041
:0404D00031010008EE
:0404D4000D0100080E
:0404D800010000001F
:04000005080003F1FB
:00000001FF
