:020000040800F2
:1000000000500020990300083D0300084303000846
:10001000490300084F0300085503000800000000D2
:100020000000000000000000000000005B0300086A
:100030006703000800000000730300087F03000846
:10004000E1030008E1030008E1030008E103000800
:10005000E1030008E1030008E1030008E1030008F0
:10006000E1030008E1030008E1030008E1030008E0
:10007000E1030008E1030008E1030008E1030008D0
:10008000E1030008E1030008E1030008E1030008C0
:10009000E1030008E1030008E1030008E1030008B0
:1000A000E1030008E1030008E1030008E1030008A0
:1000B000E1030008E1030008E1030008E103000890
:1000C000E1030008E1030008E1030008E103000880
:1000D000E1030008E1030008E1030008E103000870
:1000E000E1030008E1030008E1030008000000004C
:1000F0000000000000000000000000000000000000
:0C01000000000000000000005FF808F1A3
:10010C0010B5054C237833B9044B13B10448AFF345
:10011C0000800123237010BD0400002000000000AB
:10012C005004000808B5034B1BB103490348AFF357
:10013C00008008BD000000000800002050040008EA
:10014C0080B485B000AFF860B9601346FB71FB68F2
:10015C00BA681A60FB68FA791A71FB79072B07D811
:10016C00FA79FB681B68042101FA02F21A6006E0B6
:10017C00FA79FB681B68042101FA02F25A60FB68E9
:10018C0018461437BD4680BC704780B483B000AFAE
:10019C0078607B681B689B68DBB203F01003DBB2F2
:1001AC0018460C37BD4680BC7047000080B483B045
:1001BC0000AF7860044A7B681A607B6818460C377D
:1001CC00BD4680BC704700BF8404000880B584B075
:1001DC0000AFF860B9601346FB71FB681846FFF777
:1001EC00E5FF074AFB681A60FB68BA685A60FB684F
:1001FC00FA791A72FB6818461037BD4680BD00BFED
:10020C007004000880B483B000AF7860044B4FF4E6
:10021C0040125A6000BF0C37BD4680BC704700BF0F
:10022C000010014080B483B000AF78607B681B7A0B
:10023C001A46012303FA02F27B685B68DA6000BF9E
:10024C000C37BD4680BC704780B483B000AF78607B
:10025C007B685B68DA687B681B7A194601238B40E4
:10026C00DB4319467B685B680A40DA6000BF0C37D9
:10027C00BD4680BC704780B485B000AF7860002369
:10028C00FB6002E0FB680133FB60FA687B689A4212
:10029C00F8D300BF00BF1437BD4680BC70470000C8
:1002AC0080B588B000AF1D4BFB611D4B1C229A61C1
:1002BC001C4B43F230321A6007F1100310221A491A
:1002CC001846FFF73DFF3B1D142218491846FFF74F
:1002DC007DFF07F110031846FFF757FF0346FB7627
:1002EC00FB7E002B11D10F4BDB680E4A43F00E0343
:1002FC00D360F869FFF7BFFF0A4BDB68094B00229C
:10030C00DA60F869FFF7B7FFE3E7064BDB68054BEC
:10031C000022DA60F869FFF7AEFFDAE7A086010089
:10032C000010024000080140000C01400010014088
:10033C0080B400AFFEE780B400AFFEE780B400AF3E
:10034C00FEE780B400AFFEE780B400AFFEE780B4F8
:10035C0000AF00BFBD4680BC704780B400AF00BF8B
:10036C00BD4680BC704780B400AF00BFBD4680BCAA
:10037C00704780B500AF00F02FF800BF80BD80B48F
:10038C0000AF00BFBD4680BC70470000FFF7F7FF11
:10039C000B480C490C4A002302E0D458C4500433D7
:1003AC00C4188C42F9D3094A094C002301E01360AC
:1003BC000432A242FBD300F021F8FFF771FF704723
:1003CC000000002004000020980400080400002015
:1003DC0024000020FEE7000080B400AF054B1B7822
:1003EC001A46054B1B681344034A136000BFBD46F5
:1003FC0080BC7047000000202000002070B5002653
:10040C000C4D0D4C641BA410A64209D100F01AF837
:10041C0000260A4D0A4C641BA410A64205D170BDDF
:10042C0055F8043B98470136EEE755F8043B9847DE
:10043C000136F2E7900400089004000890040008CC
:10044C0094040008F8B500BFF8BC08BC9E46704781
:0C045C00F8B500BFF8BC08BC9E46704715
:10046800000000000000000011020008310200082E
:100478005502000800000000000000000000000015
:0804880000000000000000006C
:04049000310100082E
:040494000D0100084E
:04049800010000005F
:040000050800039953
:00000001FF
