:020000040800F2
:10000000005000201D020008C1010008C7010008BF
:10001000CD010008D3010008D9010008000000004C
:10002000000000000000000000000000DF010008E8
:10003000EB01000800000000F701000803020008BF
:1000400065020008650200086502000865020008F4
:1000500065020008650200086502000865020008E4
:1000600065020008650200086502000865020008D4
:1000700065020008650200086502000865020008C4
:1000800065020008650200086502000865020008B4
:1000900065020008650200086502000865020008A4
:1000A0006502000865020008650200086502000894
:1000B0006502000865020008650200086502000884
:1000C0006502000865020008650200086502000874
:1000D0006502000865020008650200086502000864
:1000E00065020008650200086502000800000000C3
:1000F0000000000000000000000000000000000000
:0C01000000000000000000005FF808F1A3
:10010C0010B5054C237833B9044B13B10448AFF345
:10011C0000800123237010BD0400002000000000AB
:10012C00D402000808B5034B1BB103490348AFF3D5
:10013C00008008BD0000000008000020D402000868
:10014C0080B485B000AF78600023FB6002E0FB68F0
:10015C000133FB60FA687B689A42F8D300BF00BF9A
:10016C001437BD4680BC704780B582B000AF0E4BD3
:10017C001C229A610D4B43F230321A600C4B7B609F
:10018C000A4BDB68094A43F01003D3607868FFF729
:10019C00D7FF064BDB68054A23F01003D360786861
:1001AC00FFF7CEFFECE700BF001002400008014053
:1001BC00A086010080B400AFFEE780B400AFFEE77C
:1001CC0080B400AFFEE780B400AFFEE780B400AFB0
:1001DC00FEE780B400AF00BFBD4680BC704780B462
:1001EC0000AF00BFBD4680BC704780B400AF00BFFD
:1001FC00BD4680BC704780B500AF00F02FF800BF43
:10020C0080BD80B400AF00BFBD4680BC704700000D
:10021C00FFF7F7FF0B480C490C4A002302E0D458B7
:10022C00C4500433C4188C42F9D3094A094C002336
:10023C0001E013600432A242FBD300F021F8FFF777
:10024C0093FF70470000002004000020F402000817
:10025C000400002024000020FEE7000080B400AF62
:10026C00054B1B781A46054B1B681344034A136055
:10027C0000BFBD4680BC704700000020200000205D
:10028C0070B500260C4D0D4C641BA410A64209D170
:10029C0000F01AF800260A4D0A4C641BA410A64262
:1002AC0005D170BD55F8043B98470136EEE755F87B
:1002BC00043B98470136F2E7EC020008EC02000818
:1002CC00EC020008F0020008F8B500BFF8BC08BC4E
:1002DC009E467047F8B500BFF8BC08BC9E467047F8
:0402EC0031010008D4
:0402F0000D010008F4
:0402F4000100000005
:040000050800021DD0
:00000001FF
